:100000000C9434000C9451000C9451000C94510049
:100010000C9451000C9451000C9451000C9451001C
:100020000C9451000C9451000C9451000C9451000C
:100030000C9451000C9451000C9451000C945100FC
:100040000C9451000C9451000C9451000C945100EC
:100050000C9451000C9451000C9451000C945100DC
:100060000C9451000C94510011241FBECFEFD8E026
:10007000DEBFCDBF11E0A0E0B1E0E6E0F1E002C0FC
:1000800005900D92A230B107D9F721E0A2E0B1E0CE
:1000900001C01D92A430B207E1F70E945F000C94EA
:1000A00081000C940000181619060CF00895EFE971
:1000B000FFE03197F1F700C000000197F4CF259AD7
:1000C00085B115B8C0E2189B14C0809100019091D1
:1000D000010184549D4F909303018093020185B1E7
:1000E0008C2785B980910201909103010E945300F1
:1000F000EACF85B18C2785B98091000190910101EB
:06010000F5CFF894FFCFDB
:02010600C8002F
:00000001FF
